:020000040000FA
:06000000C0EF1CF012002D
:0600080004EF08F01200F5
:060018000CEF08F01200DD
:06100000C0EF1CF012001D
:021006000000E8
:0610080039EF10F01200A8
:02100E00A6B288
:04101000FED71200F5
:021014001200C8
:0610180084EF10F012004D
:02101E00D9CF28
:10102000E6FFE1CFD9FFE6520F015F6B626A160E51
:10103000616E9F0E5B6F7B0E606E648C5C6B000E4E
:10104000E66EE66AE66A540EE66E0F0EE66E90EC09
:101050001CF0146E050EE15E1450649CDF6ADF50D4
:10106000146E156A080E145C000E155810E2DF505D
:10107000040DF3CFE9FFF4CFEAFF000EE926020EDC
:10108000EA22EE6AEE6AEE6AEE6ADF2AE8D70F011C
:10109000160E536F62A60CD0030EE66E620EE66E5D
:1010A0000F0EE66E05EC10F0E552E552E552F2D770
:1010B0000001E96BEE6BEF6BF06B6498080EE16F6B
:1010C000020EE26FD76BD66BE552E552E7CFD9FF40
:1010D0001200D9CFE6FFE1CFD9FFE6520001D605D5
:1010E00007E164BA05D0626A60806088020ED66F3C
:1010F0006250040B0FE06050040B0CE0020EE66E31
:10110000620EE66E0F0EE66E05EC10F0E552E5524B
:10111000E552E8D864B271D06250010B1BE0605018
:10112000010B18E07CDF0001040ED66F0201200ED7
:10113000026F020E036F100E016F006B8C0E001316
:10114000E66A620EE66E0F0EE66E05EC10F0E552F2
:10115000E552E5526250100B0FE06050100B0CE0AE
:10116000A5D8040EE66E620EE66E0F0EE66E05EC76
:1011700010F0E552E552E5526250400B1DE0605020
:10118000400B1AE0010EE66EE66A000EE66EE66AB5
:10119000020EE66EE66A43EC13F0146E060EE15E94
:1011A0001450060EE66E620EE66E0F0EE66E05EC4D
:1011B00010F0E552E552E5526250200B04E0605019
:1011C000200B01E04FD86250020B13E06050020B7D
:1011D00010E0010EE66EE66A000EE66EE66AE6686C
:1011E000E66843EC13F0146E060EE15E14500F0136
:1011F0005F6B040E0001D65D02E2A1942ED060A6C2
:101200002BD0DF6A040EDF5C27E262A625D063CF15
:10121000F6F0030EE66E620EE66E0F0EE66E05EC5D
:1012200010F0E552E552E552780E0001F61502E1A4
:1012300078D810D0000EE66EE66AF60EE66E000E66
:10124000E66E010EE66EE66A43EC13F0146E060ECF
:10125000E15E1450DF2AD6D7A194E552E552E7CFDC
:10126000D9FF12000F0153A115D0D9C0E9FFDAC090
:10127000EAFFEF5080080DE1E1C0E9FFE2C0EAFFBC
:10128000EF50840806E1D9C0E9FFDAC0EAFF8C0E0E
:10129000EF6E5391050EE66E620EE66E0F0EE66E71
:1012A00005EC10F0E552E552E55212006084040EA0
:1012B000E66E620EE66E0F0EE66E05EC10F0E5527D
:1012C000E552E5526482000EE66EE66AE66EE66A74
:1012D000040EE66EE66A43EC13F0146E060EE15E51
:1012E00014501200000EE66EE66AE66EE66A030E21
:1012F000E66EE66A43EC13F0146E060EE15E1450DF
:101300006492609462A40CD0020EE66E620EE66EE9
:101310000F0EE66E05EC10F0E552E552E552F2D7FD
:101320001200D9CFE6FFE1CFD9FFE652FD0E000152
:10133000F6155AE17E0EF615E8407F0B040DF3CF4B
:10134000D9F0F4CFDAF0000ED927020EDA23D9C093
:10135000DBF0DAC0DCF0DB75D9C0E9FFDAC0EAFF08
:10136000EF503C0BE842E8420D083CE1D9C0E9FFF0
:10137000DAC0EAFF020EE926000EEA22EECF14F0F0
:10138000EFCF15F0280E14182BE1020E151828E1E6
:10139000D9C0E9FFDAC0EAFF020EE926000EEA2210
:1013A000200EEE6E020EED6EDF6ADF50146E156ACF
:1013B000080E145C000E155813E2DF50EA6A280F7D
:1013C000E96E020EEA22EF50E66EDF50EA6A200F65
:1013D000E96E020EEA22E552E750EF6EDF2AE5D70A
:1013E0000DD807D02ED805D0FD0EF615040801E162
:1013F0004ED8E552E552E7CFD9FF1200E1C0E9FF30
:10140000E2C0EAFFEF50800B05E0E1C0E9FFE2C077
:10141000EAFFEF6A0001E56BE66BEA6BEB6BE96BE9
:10142000B5D8000EE66EE66AE66EE66A170EE66E60
:10143000E66A43EC13F0146E060EE15E14505CEFA6
:101440000CF0020E0001E65D02E1B7EF0DF06CD882
:101450000001F7511AE1DBC0E9FFDCC0EAFFEE5200
:10146000100EEF6EDBC0E9FFDCC0EAFF020EE926DA
:10147000000EEA22200EEE6E020EED6EDBC0E9FFDA
:10148000DCC0EAFF8C0EEF6E1200F76B1200D9CFB2
:10149000E6FFE1CFD9FFE652E1C0E9FFE2C0EAFF93
:1014A000EF50400B01E0010EDF6E0001E175080E08
:1014B000D65D0CE122C25CFF0F015C51000803E223
:1014C0000001100E02D00001040ED66FE60526E1E1
:1014D000E1C0E9FFE2C0EAFF020EE926000EEA22BF
:1014E000280EEE6E020EED6EB9DA020E0001E55D19
:1014F00006E1E1C0E9FFE2C0EAFF840E0DD0DF5053
:1015000006E1E1C0E9FFE2C0EAFFC80E05D0E1C094
:10151000E9FFE2C0EAFF880EEF6E01D005D8E55280
:10152000E552E7CFD9FF1200D9CFE6FFE1CFD9FFCF
:10153000020EE1260001E66BE1C0E9FFE2C0EAFF2E
:10154000EF6A040EE119146EE2C015F0DE6EE2C01F
:10155000DDFFDECFE9FFDDCFEAFFEF6AEEAF0CD0B3
:10156000F151F21107E005D0F2C0FAFF0001F1518C
:10157000F96EFADF0001EE9F020EE15C02E2E16A21
:10158000E552E16EE552E7CFD9FF1200020120518A
:10159000600BE842E842E842E842E842000901E024
:1015A000120021510C0A50E00B0A3FE00C0A31E016
:1015B000010A22E00B0A1EE0020A1CE0030A18E0FE
:1015C000080A10E0010A0CE00F0A08E0030A01E033
:1015D00012000001E98F080ED66F1200ABEF0BF07E
:1015E00054EF0EF00001D70EE76F000EE86F0CD03D
:1015F00002EF0CF025EF0BF024510001E76FE86BD0
:10160000D80EE727000EE823E981010EEA6FE98F83
:1016100012000001E98F02012451EA6AD80FE96E35
:10162000000EEA2222C2EFFF1200000EE66EE66A0A
:10163000E66EE66A160EE66EE66A43EC13F0146E8A
:10164000060EE15E145012001200D9CFE6FFE1CF82
:10165000D9FF040EE1260201220510E120511F0BE3
:1016600000090CE10001E98F030E0201215D04E194
:101670000001010EF56F02D00001F56B020122514D
:1016800060E120511F0B02085CE124510F0B00099F
:1016900058E00001E98F020124BF0BD024510F0B49
:1016A000E96EEA6AD890E936EA36DD0EE926000EE0
:1016B0000AD024510F0BE96EEA6AD890E936EA366F
:1016C000E10EE926000EEA22EECFDEFFEDCFDDFFD0
:1016D000030E215D06E1DECFE9FFDDCFEAFF840ED8
:1016E0002FD024510F0B156A530F146E0F0E1522B5
:1016F000020E14C0DBFF030E15C0DBFF020EDBCFB2
:10170000E9FF030EDBCFEAFFEE90ED5224AF0CD0E1
:10171000DECFE9FFDDCFEAFFEF6ADF74DECFE9FF5E
:10172000DDCFEAFF400E0CD0DECFE9FFDDCFEAFFD0
:10173000880EEF6EDF74DECFE9FFDDCFEAFFC80E63
:10174000EF6E040EE15C02E2E16AE552E16EE55201
:10175000E7CFD9FF1200800E0201205D52E10001A7
:10176000C00EE96F02012351030A29E0010A09E0D2
:10177000030A45E10001120EE76F330EE86F120E07
:1017800038D02251F66EF76AD890F636F736890EC1
:10179000F626340EF7220900F5CFE7F00A00F5CF60
:1017A000E8F0020E0001F76AE725F66EE851F7222D
:1017B0000900F5CFEAF00A00F5CFEBF01200030EB6
:1017C000225D1AE22251F66EF76AD890F636F736A5
:1017D0008B0EF626340EF7220900F5CFE7F00A004B
:1017E000F5CFE8F0E7C0F6FFE8C0F7FF0800F550D6
:1017F0000001EA6FEB6B12000001E96B12000001BF
:10180000E96B1200D9CFE6FFE1CFD9FF020EE12646
:101810000201286B296B20511F0B020A11E0030AF9
:101820000CE0010A35E10001E98F02012881000185
:10183000F5052EE1020128832BD00001E98F28D085
:101840000001E98F020124BF0BD024510F0BE96E78
:10185000EA6AD890E936EA36DD0EE926000E0AD0AB
:1018600024510F0BE96EEA6AD890E936EA36E10EA8
:10187000E926000EEA22EECFDEFFEDCFDDFFDECF60
:10188000E9FFDDCFEAFFEF50040B02E0010E286F05
:101890000001E9AF07D0280EE76F020EE86FE9817B
:1018A000020EEA6F020EE15C02E2E16AE552E16ECD
:1018B000E552E7CFD9FF120064980001E9BF47D095
:1018C000EEAF26D0020EE66FE1C0E9FFE2C0EAFF0C
:1018D000EE52EF6AE1C0E9FFE2C0EAFFC80EEF6E28
:1018E000DBC0E9FFDCC0EAFFEE52100EEF6EDBC09A
:1018F000E9FFDCC0EAFF020EE926000EEA22280E0C
:10190000EE6E020EED6EDBC0E9FFDCC0EAFF7AD0BE
:10191000DBC0E9FFDCC0EAFFEE52100EEF6EDBC069
:10192000E9FFDCC0EAFF020EE926000EEA22200EE3
:10193000EE6E020EED6EDBC0E9FFDCC0EAFF8C0E3E
:10194000EF6EE1C0E9FFE2C0EAFF840E5CD0EEBFBB
:1019500084D0020120AF59D00001EA510201265D76
:101960000001EB510201275904E226C2EAF027C226
:10197000EBF074D80001010EE66FDBC0E9FFDCC0BC
:10198000EAFFEE52100EEF6EDBC0E9FFDCC0EAFFAB
:10199000020EE926000EEA22200EEE6E020EED6E19
:1019A000DBC0E9FFDCC0EAFF800EEF6EF76BD9C049
:1019B000E9FFDAC0EAFFEE52100EEF6ED9C0E9FF80
:1019C000DAC0EAFF020EE926000EEA22200EEE6ED1
:1019D000020EED6ED9C0E9FFDAC0EAFF840EEF6EA9
:1019E000010EF76FE1C0E9FFE2C0EAFF020EE9264F
:1019F000000EEA22280EEE6E020EED6EE1C0E9FF47
:101A0000E2C0EAFFC80EEF6E12000001020EE66FA0
:101A1000E1C0E9FFE2C0EAFFEE52EF6AE1C0E9FF90
:101A2000E2C0EAFFC80EEF6EDBC0E9FFDCC0EAFFF0
:101A3000EE52100EEF6EDBC0E9FFDCC0EAFF020ED3
:101A4000E926000EEA22280EEE6E020EED6EDBC0D5
:101A5000E9FFDCC0EAFFC80EEF6E1200D9CFE6FF47
:101A6000E1CFD9FF020EE1260001100EEA5D000E63
:101A7000EB590DE2EAC0DEFFEBC0DDFFE55102E10C
:101A8000010E03D0E50506E1020EE56F03D0100E4E
:101A9000DE6EDD6AE1C0E9FFE2C0EAFFEF92E1C07D
:101AA000E9FFE2C0EAFFEF90E1C0E9FFE2C0EAFF30
:101AB000010EDB50EF12E1C0E9FFE2C0EAFFEE5297
:101AC000DFCFEFFF000EDB50EA5F010EDB50EB5B78
:101AD000280EF36F020EF46FE9B120D0D9CFE9FFE1
:101AE000DACFEAFFEE50ED1038E0E7C0F6FFE8C0CD
:101AF000F7FFE72B000EE8230800F550E66EF3C071
:101B0000E9FFF4C0EAFFF32B000EF423E552E7509F
:101B1000EF6EDF06010EE2E2DB06E0D7D9CFE9FF88
:101B2000DACFEAFFEE50ED1018E0E7C0E9FFE8C0B9
:101B3000EAFFE72B000EE823EF50E66EF3C0E9FF63
:101B4000F4C0EAFFF32B000EF423E552E750EF6EEA
:101B5000DF06010EE3E2DB06E1D7020EE15C02E202
:101B6000E16AE552E16EE552E7CFD9FF1200D9CF25
:101B7000E6FFE1CFD9FF020EE126D9C0E9FFDAC0C6
:101B8000EAFFEE52EFCFDFFFDFCF14F01450000179
:101B9000EF5D000EF05903E2EFC0DFFF09D0DF5028
:101BA000146E156AE850EF5DEF6F1550F059F06F45
:101BB000010EDB6ADF50F36E010EDBCFF4FFF35052
:101BC000F45C16E2010EDB50EA6A280FE96E020EA1
:101BD000EA22EF50E66EECC0E9FFEDC0EAFFEC2B25
:101BE000000EED23E552E750EF6E010EDB2AE2D73F
:101BF000000ED880EF55000EF05527E2DBC0E9FF5C
:101C0000DCC0EAFFEE52100EEF6EDBC0E9FFDCC075
:101C1000EAFF020EE926000EEA22280EEE6E020E00
:101C2000ED6ED9C0E9FFDAC0EAFFEF50400B06E1E4
:101C3000DBC0E9FFDCC0EAFFC80E05D0DBC0E9FF6E
:101C4000DCC0EAFF880EEF6E25D0DBC0E9FFDCC008
:101C5000EAFFEE52100EEF6EDBC0E9FFDCC0EAFFD8
:101C6000020EE926000EEA22200EEE6E020EED6E46
:101C7000DBC0E9FFDCC0EAFF840EEF6EF151F21128
:101C800007E005D0F2C0FAFF0001F151F96EFADF6A
:101C90000001EE9F020EE15C02E2E16AE552E16EB4
:101CA000E552E7CFD9FF12000001E98F000EE66E82
:101CB000E66AE66A540EE66E0F0EE66E90EC1CF0D5
:101CC000146E050EE15E1450010EE66EE66AE66AD9
:101CD000D80EE66E000EE66E90EC1CF0146E050E4B
:101CE000E15E145022C2D7F00201225104E100014A
:101CF000100ED66F12000001200ED66F000EE66E99
:101D0000E66AE66EE66A150EE66EE66A43EC13F0E6
:101D1000146E060EE15E14501200D9CFE6FFE1CF3B
:101D2000D9FF020EE126000EDE6E020EDD6EFD0E04
:101D3000DB50E824166EFE0EDB50040DF350162423
:101D4000040DF350146E156A020E0F0B05E0D890C7
:101D500015321432E806FBE1D89014361536D890C7
:101D600014361536D9CFE9FFDACFEAFF1450EE2644
:101D70001550ED22DECFE9FFDDCFEAFFEF9EFD0E2D
:101D8000DB500AE1FE0EEA6ADB34FE0BEA36E96E4E
:101D9000DD0EE926000E09D0FE0EEA6ADB34FE0BEA
:101DA000EA36E96EE10EE926000EEA22DECFEEFF0A
:101DB000DDCFEDFFDECFE9FFDDCFEAFFEF9CDECF29
:101DC000E9FFDDCFEAFF040EE926000EEA22EF8CE0
:101DD000020EE15C02E2E16AE552E16EE552E7CF14
:101DE000D9FF1200D9CFE6FFE1CFD9FF020EE126DD
:101DF000FE0EDB50156A530F146E0F0E152214C021
:101E0000DEFF15C0DDFFDECFE9FFDDCFEAFFFD0E0F
:101E1000DBCFEFFFDBA407D0E66AFE0EDBCFE6FFE9
:101E20007CDFE552E552FD0EDBA208D0010EE66E26
:101E3000FE0EDBCFE6FF71DFE552E552020EE15CFC
:101E400002E2E16AE552E16EE552E7CFD9FF120006
:101E5000D9CFE6FFE1CFD9FF020EE126FE0EDB501F
:101E600020E1DBC0E9FFDCC0EAFFEE52100EEF6EAE
:101E7000DBC0E9FFDCC0EAFF020EE926000EEA2221
:101E8000200EEE6E020EED6EDBC0E9FFDCC0EAFF55
:101E90008C0EEF6EE1C0E9FFE2C0EAFF840EEF6E48
:101EA0003BD0FD0EDB50E824166EFE0EDB50040D19
:101EB000F3501624040DF3CF14F0F4CF15F0000EF8
:101EC0001426020E152214C0DEFF15C0DDFF840E9D
:101ED000DECFE9FFDDCFEAFFE850EF12FD0EDB5069
:101EE000E824166EFE0EDB50040DF3501624010F8D
:101EF000040DF3CF14F0F4CF15F0000E1426020EEB
:101F0000152214C0DEFF15C0DDFF840EDECFE9FF11
:101F1000DDCFEAFFE850EF12020EE15C02E2E16A77
:101F2000E552E16EE552E7CFD9FF1200D9CFE6FFC7
:101F3000E1CFD9FF020EE126FD0EDB500AE0FE0ED6
:101F4000EA6ADB34FE0BEA36E96EE10EE926000EA2
:101F500009D0FE0EEA6ADB34FE0BEA36E96EDD0ECE
:101F6000E926000EEA22EECFDEFFEDCFDDFFDECF69
:101F7000E9FFDDCFEAFF020EE926000EEA22FB0EA2
:101F8000DBCFEEFFFC0EDBCFEDFFDECFE9FFDDCFD9
:101F9000EAFFEE52FA0EDBCFEFFF400EDECFE9FF95
:101FA000DDCFEAFFE850EF16880EDECFE9FFDDCF88
:101FB000EAFFE850EF12FD0EDB500AE0FE0EEA6A7F
:101FC000DB34FE0BEA36E96EE10EE926000E09D09D
:101FD000FE0EEA6ADB34FE0BEA36E96EDD0EE92618
:101FE000000EEA22EF74DECF14F0DDCF15F014C03E
:101FF000F3FF15C0F4FF020EE15C02E2E16AE55274
:10200000E16EE552E7CFD9FF1200D9CFE6FFE1CF6D
:10201000D9FF010EF36EFC0EDB5004E0D890F336CE
:10202000E806FCE1F31C146EFD0EDBCFE9FFFE0EAB
:10203000DBCFEAFF1450EF16E552E7CFD9FF1200CD
:1020400012000001D65114E1646A606A160E616ED6
:102050000F019F0E5B6F7B0E606ED08EA284A084FA
:10206000F28E64B602D06486FCD70001010ED66FF2
:0220700012005C
:0E207200DACFE4FFE2CFDAFFE9CFE4FFEACFF6
:10208000E4FFF6CFE4FFF7CFE4FFF5CFE4FFF3CFB3
:10209000E4FFF4CFE4FFFACFE4FF00EE00F0140E0B
:1020A000E80403E3EECFE4FFFBD700EE14F0040EE8
:1020B000E80403E3EECFE4FFFBD7E65269EC08F057
:1020C000E55200EE17F0040EE80403E3E5CFEDFF60
:1020D000FBD700EE13F0140EE80403E3E5CFEDFFA9
:1020E000FBD7E5CFFAFFE5CFF4FFE5CFF3FFE5CF70
:1020F000F5FFE5CFF7FFE5CFF6FFE5CFEAFFE5CF48
:10210000E9FFE5CFDAFF1100D8CFE4FFE0CFE4FF2D
:10211000E46EDACFE4FFE652F2A40FD0F294040E9C
:102120000001E76EA419E8AE02D0E73402D0E75010
:10213000A45D02E3010EA56FA46BE552E5CFDAFFC3
:10214000E550E5CFE0FFE5CFD8FF1000D08EF28E4E
:10215000F28C970EE66E3EEC1CF0E552F28AF1949A
:10216000120004D821EC10F047D8FED70F0EC11290
:1021700002D80FEF08F094908B90948A94827F6A33
:102180007E6A01014D6B4DC14CF10001886BA46B5F
:10219000DDDF0001A66BA6C0A5F0A76B080EA86F37
:1021A000A96BAA6FC06B82DB0001D36BD26B926B01
:1021B000936B8A6B8AC089F089EC18F094EC18F064
:1021C000200EE66ECEEC1CF0E552960EE66E000E8A
:1021D000E66E940EE66E000EE66EBEEC18F0E5526A
:1021E000E552E552E55294C0CAF095C0CBF096C0D6
:1021F000CCF097C0CDF01200200E0001D65D05E3B3
:102200006450020B01E0120001D812000001D20557
:1022100005E1E66A83DAE5520001D26BD30503E1FA
:1022200045DB0001D36B9A0EE66E000EE66E980E4B
:10223000E66E000EE66EBEEC18F0E552E552E55291
:10224000E552000901E070D1000194519825CA6F50
:1022500095519921CB6F010E0F0B05E0D890CB3330
:10226000CA33E806FBE1000196519A25CC6F9751DD
:102270009B21CD6F010E0F0B05E0D890CD33CC33F1
:10228000E806FBE1CAC094F0CBC095F0CCC096F054
:10229000CDC097F00001A751CA5DCE6FA851CB59B0
:1022A000CF6F400E0D6E0E6ACEC008F0CFC009F0A1
:1022B00052EC17F008C0CEF009C0CFF00001A951D0
:1022C000CC5DD06FAA51CD59D16F400E0D6E0E6A04
:1022D000D0C008F0D1C009F052EC17F008C0D0F01F
:1022E00009C0D1F00001A751CA5D146ECB51A855A9
:1022F000156E1450AB25CA6F1550AC21CB6F400E34
:102300000D6E0E6ACAC008F0CBC009F052EC17F08F
:1023100008C0CAF009C0CBF00001A951CC5D146E11
:10232000CD51AA55156E1450AD25CC6F1550AE2168
:10233000CD6F400E0D6E0E6ACCC008F0CDC009F016
:1023400052EC17F008C0CCF009C0CDF00001CE511E
:10235000CE03F3CF16F0F4CF17F0CF03F350000104
:102360001726CFC0E8FF0001CE03F3500001172667
:10237000D0C008F0D1C009F0D0C00DF0D1C00EF02F
:1023800078EC17F016500624146E17500720156EBF
:1023900014C008F0096E3FEC17F007C0A0F008C0A9
:1023A000A1F009C0A2F00AC0A3F00C6A800E0D6E65
:1023B000220E0E6E440E0F6EA5EC17F0010A0DE111
:1023C0000001A451A42B000908E17C0EE66E7F0EEB
:1023D000E66E22EC1CF0E552E5520001AF51CB0352
:1023E000F3CFCBF0B051CA03F350CB27AF51CA03A0
:1023F000F3CFCAF0F450CB27640E0D6E0E6AF3CF04
:1024000008F0CBC009F052EC17F008C0CAF009C0C0
:10241000CBF00001B151CD03F3CFCDF0B251CC03DD
:10242000F350CD27B151CC03F3CFCCF0F450CD27EE
:10243000640E0D6E0E6AF3CF08F0CDC009F052ECB9
:1024400017F008C0CCF009C0CDF00001C15104E084
:10245000CA6DCB1F000ECB23C25104E0CC6DCD1F43
:10246000000ECD23B651CA03F3CF14F0F4CF15F00C
:10247000CB03F35000011526B7C0E8FF0001CA03E3
:10248000F35000011526CCC008F0CDC009F0BAC049
:102490000DF0BBC00EF078EC17F0145006240001CC
:1024A000C66F15500720C76FB851CA03F3CF14F099
:1024B000F4CF15F0CB03F35000011526B9C0E8FFA7
:1024C0000001CA03F35000011526CCC008F0CDC0AE
:1024D00009F0BCC00DF0BDC00EF078EC17F0145040
:1024E00006240001C86F15500720C96F640E0D6ED9
:1024F0000E6AC6C008F0C7C009F052EC17F008C059
:10250000C6F009C0C7F0640E0D6E0E6AC8C008F0B0
:10251000C9C009F052EC17F008C0C8F009C0C9F0F2
:10252000C6C089F008C08AF000019251931102E1FF
:10253000000E08D092C0E9FF93C0EAFFEF50800B75
:1025400001E0010E000901E07FD010EC1CF0010158
:102550004B6FFDEC1BF001014A6FE85006E00101F2
:102560004B5103E00001888502D0000188950101EC
:102570004A5106E001014B5103E10001888102D07C
:102580000001889101014B5106E001014A5103E12C
:102590000001888302D0000188930201010E606F60
:1025A00088C061F20001C05104E189C062F28AC0B2
:1025B00063F2A551A61135E0A6510CE00201020E0E
:1025C000606F616B626B636B646B656B666B676B93
:1025D0000001A66BA55111E00201020E606FB3C0AD
:1025E00061F2B4C062F2B5C063F2646B656B666B96
:1025F000676B0001A56B010EA66F080EE66E600EFC
:10260000E66E020EE66E010EE66EE66E96EC0FF0DA
:10261000146E050EE15E1450F3CF92F0F4CF93F0F8
:102620001200040EE66E600EE66E020EE66E010EFD
:10263000E66EE66E96EC0FF0146E050EE15E145039
:10264000F3CF92F0F4CF93F01200120012001200B8
:102650001200E5EF1AF012001E0EE66E010EE66E95
:10266000F2EC0EF0E552E552120064840001080E0F
:10267000D46F070ED56FD407000ED55BD451D5119A
:10268000FAE164941200D9CFE6FFE1CFD9FFFD0E45
:10269000DBCF08F0FE0EDBCF09F0010E081801E1D8
:1026A000095033E0E868081802E1E86809182BE0EF
:1026B000030E081801E1095024E0040E081801E196
:1026C00009501DE0020E081801E1095016E0170E2E
:1026D000081801E109500FE0160E081801E1095031
:1026E00008E0150E081801E1095001E010D0B4DF30
:1026F0000FD0B1DF0DD0ADDF0BD0A9DF09D0A5DF42
:1027000007D0A4DF05D0A4DF03D0000001D000D0A3
:10271000010E00D0E552E7CFD9FF1200D9CFE6FF76
:10272000E1CFD9FFFE0EDB0419E10001080EB36F03
:10273000070EB46FB56BC16BC26BAB6BAC6BAD6BA3
:10274000AE6B640EAF6FB06BB16FB26BB66FB76B41
:10275000B86BB96BBA6BBB6BBC6FBD6BB3C0E6FF3C
:10276000000EE66EE66A95EC1AF0E552E552E55287
:10277000B4C0E6FF020EE66EE66A95EC1AF0E5528A
:10278000E552E552B5C0E6FF040EE66EE66A95EC4A
:102790001AF0E552E552E552C1C0E6FF060EE66EBC
:1027A000E66A95EC1AF0E552E552E552C2C0E6FF42
:1027B000080EE66EE66A95EC1AF0E552E552E5522F
:1027C000ABC0E6FFACC0E6FF0A0EE66EE66AADEC13
:1027D0001AF0E552E552E552E552ADC0E6FFAEC053
:1027E000E6FF0C0EE66EE66AADEC1AF0E552E55235
:1027F000E552E552AFC0E6FFB0C0E6FF0E0EE66E52
:10280000E66AADEC1AF0E552E552E552E552B1C088
:10281000E6FFB2C0E6FF100EE66EE66AADEC1AF017
:10282000E552E552E552E552B6C0E6FFB7C0E6FF15
:10283000120EE66EE66AADEC1AF0E552E552E5528C
:10284000E552B8C0E6FFB9C0E6FF140EE66EE66AD0
:10285000ADEC1AF0E552E552E552E552BAC0E6FF9A
:10286000BBC0E6FF160EE66EE66AADEC1AF0E55266
:10287000E552E552E552BCC0E6FFBDC0E6FF180ECA
:10288000E66EE66AADEC1AF0E552E552E552E55225
:10289000990EE66EFF0EE66EE66A95EC1AF0E552CA
:1028A000E552E552E552E7CFD9FF1200FF0EE66E82
:1028B000E66A49EC1AF0E552E552FF0804E1010E20
:1028C000E66E2CDFE552000EE66EE66A49EC1AF081
:1028D000E552E5520001B36F020EE66EE66A49EC7E
:1028E0001AF0E552E5520001B46F040EE66EE66A96
:1028F00049EC1AF0E552E5520001B56F060EE66E9E
:10290000E66A49EC1AF0E552E5520001C16F080E83
:10291000E66EE66A49EC1AF0E552E5520001C26F34
:102920000A0EE66EE66A5DEC1AF0E552E552F3CF68
:10293000ABF0F4CFACF00C0EE66EE66A5DEC1AF08C
:10294000E552E552F3CFADF0F4CFAEF00E0EE66EE9
:10295000E66A5DEC1AF0E552E552F3CFAFF0F4CF42
:10296000B0F0100EE66EE66A5DEC1AF0E552E55244
:10297000F3CFB1F0F4CFB2F0120EE66EE66A5DEC82
:102980001AF0E552E552F3CFB6F0F4CFB7F0140EDB
:10299000E66EE66A5DEC1AF0E552E552F3CFB8F068
:1029A000F4CFB9F0160EE66EE66A5DEC1AF0E55269
:1029B000E552F3CFBAF0F4CFBBF0180EE66EE66A3C
:1029C0005DEC1AF0E552E552F3CFBCF0F4CFBDF068
:1029D000120061C0B3F062C0B4F063C0B5F0120081
:1029E0000001615102E1000E01D0010EC06F120022
:1029F000D9CFE6FFE1CFD9FF020EE126B60EDE6E9B
:102A0000000EDD6EDECFE9FFDDCFEAFF62C0EFFF33
:102A1000DF2A010E01E3DB2ADECFE9FFDDCFEAFF8B
:102A200061C0EFFFDF2A01E3DB2ADECFE9FFDDCF64
:102A3000EAFF64C0EFFFDF2A01E3DB2ADECFE9FF14
:102A4000DDCFEAFF63C0EFFFDF2A01E3DB2ADECF41
:102A5000E9FFDDCFEAFF66C0EFFFDF2A01E3DB2AF3
:102A6000DECFE9FFDDCFEAFF65C0EFFFDF2A01E33C
:102A7000DB2ADECFE9FFDDCFEAFF68C0EFFFDF2A08
:102A800001E3DB2ADECFE9FFDDCFEAFF67C0EFFF1E
:102A9000020EE15C02E2E16AE552E16EE552E7CF47
:102AA000D9FF1200D9CFE6FFE1CFD9FF020EE12610
:102AB000AB0EDE6E000EDD6EDECFE9FFDDCFEAFF8E
:102AC00062C0EFFFDF2A010E01E3DB2ADECFE9FF60
:102AD000DDCFEAFF61C0EFFFAD0EDE6E000EDD6EF2
:102AE000DECFE9FFDDCFEAFF64C0EFFFDF2A010E92
:102AF00001E3DB2ADECFE9FFDDCFEAFF63C0EFFFB2
:102B0000020EE15C02E2E16AE552E16EE552E7CFD6
:102B1000D9FF1200D9CFE6FFE1CFD9FF020EE1269F
:102B2000AF0EDE6E000EDD6EDECFE9FFDDCFEAFF19
:102B300062C0EFFFDF2A010E01E3DB2ADECFE9FFEF
:102B4000DDCFEAFF61C0EFFFB10EDE6E000EDD6E7D
:102B5000DECFE9FFDDCFEAFF64C0EFFFDF2A010E21
:102B600001E3DB2ADECFE9FFDDCFEAFF63C0EFFF41
:102B7000020EE15C02E2E16AE552E16EE552E7CF66
:102B8000D9FF1200D9CFE6FFE1CFD9FF020EE1262F
:102B9000A70EDE6E000EDD6EDECFE9FFDDCFEAFFB1
:102BA00062C0EFFFDF2A010E01E3DB2ADECFE9FF7F
:102BB000DDCFEAFF61C0EFFFA90EDE6E000EDD6E15
:102BC000DECFE9FFDDCFEAFF64C0EFFFDF2A010EB1
:102BD00001E3DB2ADECFE9FFDDCFEAFF63C0EFFFD1
:102BE000020EE15C02E2E16AE552E16EE552E7CFF6
:102BF000D9FF12000001615106E0010A01E0120054
:102C0000010ED26F1200010ED36F1200000161514C
:102C1000030A0EE0010A09E0030A04E0010A0CE1DC
:102C2000C16B0BD0010EC16F08D0C16B010E02D079
:102C3000010EC16FC26F1200C16BC26B12008B70AC
:102C400002012251270A6AE0020A5BE0040A4CE012
:102C5000340A3DE0060A2EE0330A1FE03E0A10E087
:102C6000380A01E012000001600EEC6F000EED6FFB
:102C700026C2EFF027C2F0F0F00EF16F290E5AD005
:102C80000001600EEC6F000EED6F26C2EFF027C260
:102C9000F0F0D20EF16F290E4DD00001600EEC6FF6
:102CA000000EED6F26C2EFF027C2F0F0E00EF16FDC
:102CB000290E40D00001600EEC6F000EED6F26C2B1
:102CC000EFF027C2F0F0A40EF16F2A0E33D000010E
:102CD000600EEC6F000EED6F26C2EFF027C2F0F031
:102CE000F40EF16F2B0E26D00001600EEC6F000E7B
:102CF000ED6F26C2EFF027C2F0F00C0EF16F2C0E34
:102D000019D00001600EEC6F000EED6F26C2EFF0DF
:102D100027C2F0F0140EF16F2B0E0CD00001600EE4
:102D2000EC6F000EED6F26C2EFF027C2F0F0840EBC
:102D3000F16F2B0EF26FEE8F1200D9CFE6FFE1CFCD
:102D4000D9FFE652DF6A8B7002012251210A01E1AC
:102D500079D0040A63E0030A43E0380A31E00D0A3F
:102D600021E0340A11E0330A01E082D00001140EA0
:102D7000606F156A99C061F098C062F0156A9BC0D7
:102D800063F09AC064F057D00001270E606F156A97
:102D9000A8C061F0A7C062F0156AAAC063F0A9C01C
:102DA00064F049D00001130E606F156AACC061F089
:102DB000ABC062F0156AAEC063F0ADC064F03BD04A
:102DC00000011E0E606FB3C061F0B4C062F0B5C008
:102DD00063F00001600EE76F000EE86F040E44D050
:102DE0000001260E606F156AB7C061F0B6C062F0D0
:102DF000156AB9C063F0B8C064F0156ABBC065F06D
:102E0000BAC066F0156ABDC067F0BCC068F00001CA
:102E1000600EE76F000EE86F090E26D00001250E48
:102E2000606F156AB0C061F0AFC062F0156AB2C0E1
:102E300063F0B1C064F00001600EE76F000EE86F50
:102E4000050E12D00001210E606FC15101E0DF2A92
:102E5000C25102E0020EDF26DFCF61F00001600EFA
:102E6000E76F000EE86F020EEA6FEB6B810EE96F01
:0A2E7000E552E552E7CFD9FF12004A
:062E7A00019E08D0019E3C
:102E800009AE05D0086C091EE86A0922018E09C046
:102E900003F008C002F0136A126A8E0E046E056A0F
:102EA0001FEF18F0006A0EAE5BEF17F00D6C0E1EF0
:102EB000E86A0E22001E09AE63EF17F0086C091EC7
:102EC000E86A0922001EAAEC1CF009BE73EF17F095
:102ED00000AE000C086C091EE86A0922046C051E8D
:102EE000E86A0522000C00BE6AEF17F00188FF0CAB
:102EF00009C013F008C012F008500D02F4CF07F01B
:102F0000F3CF06F009500E02F4CF09F0F3CF08F02A
:102F10000D02F3500726F4500822E86A09221250E5
:102F20000E02F3500726F4500822E86A09220EAE7A
:102F30009EEF17F01250085E1350095A13AE000CA2
:102F40000D50085E0E50095A000CAEEC17F001B699
:102F5000000C01B0000C01B4000C010C016A5BEC28
:102F600018F073EC18F001B6120001AE08D001A001
:102F700004D001A802D001801200019012000F506D
:102F80000A5C0BE10E50095C08E10D50085C05E19C
:102F90000C50075C02E101801200D8A002D0018E23
:102FA00010D00A500FC00AF00F6E09500EC009F081
:102FB0000E6E08500DC008F00D6E07500CC007F0E3
:102FC0000C6E0F500A5C10E0FF0F09E0019001B495
:102FD00003D001AE0184120001AE019412000F2A49
:102FE000D8900E320D320C320C50075E0D50085A3C
:102FF0000E50095A09BEEAD7D89007360836093666
:103000000A2EF8D7C8D77F0E0A6EFF0E096E086E1B
:10301000076E12007F0E01BEFF0E0A6E02D07F0EF9
:103020000A6E800E096E086A076AF3D701AE04D0F3
:10303000800E0A6E096AF7D70A6A096AF4D7035044
:10304000021013101210F8E005BEF0D703BE0CD02A
:1030500004500510EBE0D8901236133602360336D2
:103060000406D8A00506F2D70550D4E10428D2E022
:1030700012AE11D07F0E121402E113A00CD0132A4D
:10308000E86A0222032207E3D880033202321332B5
:10309000042A0428BFE00450C9E013C007F002C0AE
:1030A00008F00334096E04300A6E09320A9E01BE2C
:1030B0000A8E09EF18F009360A3602E30184017E10
:1030C00006E101800A6A096A086A076A12000A288A
:1030D00003E0D88009321200D890093202E101825F
:1030E0001200018612000E360F3602E3018C017EBB
:1030F00006E101880F6A0E6A0D6A0C6A12000F2839
:1031000003E0D8800E321200D8900E32EAE1018A34
:023110001200AB
:0E311200E66A080EE66E75EC1CF0E552E5521A
:103120001D0EC86EE9EF1CF0C580C5B0FED7E9ECF6
:103130001CF0200EE66E9FEC1BF0E552000901E04A
:10314000010CE9EC1CF0E66A9FEC1BF0E55200096B
:1031500001E0020CE9EC1CF0E66A9FEC1BF0E55282
:10316000000901E0030CE9EC1CF0C584C5B4FED7EE
:10317000700EE66ECEEC1CF0E552000CD9CFE6FFE7
:10318000E1CFD9FF020EE126E9EC1CF0C580C5B005
:10319000FED7200EE66E9FEC1BF0E552000902E020
:1031A000010EABD0E9EC1CF0010EE66E9FEC1BF0BB
:1031B000E552000902E0020EA0D0E9EC1CF0C58245
:1031C000C5B2FED7210EE66E9FEC1BF0E55200095A
:1031D00002E0030E92D0E9EC1CF0DCEC1CF0DF6E98
:1031E000C59AC588C5B8FED7E9EC1CF0DCEC1CF02C
:1031F000E76E010EE7CFDBFFC59AC588C5B8FED7DD
:10320000E9EC1CF0DF50E66EFD0EDBCFE9FFFE0EB1
:10321000DBCFEAFFE552E750EE6EED6AFD0EDBCF45
:10322000E9FFFE0EDBCFEAFFEECF14F0EFCF15F093
:1032300014C015F0146AFD0EDBCFE9FFFE0EDBCFE4
:10324000EAFF14C0EEFF15C0EDFF010EDB50146E57
:10325000156AFD0EDBCFE9FFFE0EDBCFEAFF14504F
:10326000EE261550ED22DCEC1CF0DF6EC59AC58809
:10327000C5B8FED7E9EC1CF0DCEC1CF0E76E010EE3
:10328000E7CFDBFFC58AC588C5B8FED7DF50E66E3D
:10329000FB0EDBCFE9FFFC0EDBCFEAFFE552E75088
:1032A000EE6EED6AFB0EDBCFE9FFFC0EDBCFEAFF33
:1032B000EECF14F0EFCF15F014C015F0146AFB0E2A
:1032C000DBCFE9FFFC0EDBCFEAFF14C0EEFF15C039
:1032D000EDFF010EDB50146E156AFB0EDBCFE9FF2C
:1032E000FC0EDBCFEAFF1450EE261550ED22E9EC80
:1032F0001CF0C584C5B4FED7000E146E020EE15C4E
:1033000002E2E16AE552E16E1450E552E7CFD9FFDF
:023310001200A9
:0E3312001201000200000010D8041200010099
:103320000102000109022200010100C0320904006B
:1033300000010300000009211101000122F1000732
:10334000058103280001040309042A0350006400D6
:1033500053002000470072006F00750070002000CD
:1033600031003800200032003000300039002D00DC
:103370003100300024034D006F00750073006500BC
:103380002000620079002000470072006F00750085
:10339000700020003100380006FF000901A10185FE
:1033A000130901170100FFFF27FFFF0000751095AB
:1033B00002B10285260901170100FFFF27FFFF0068
:1033C0000075109504B102851E0901150026FF0045
:1033D00075089503B10285140901150027FFFF0048
:1033E0000075109502B1028515090195017508B1A6
:1033F00001852009011500250275089501B1028596
:103400002109011500250275089501B102852509DC
:1034100001150027FFFF000075109502B1028527F6
:103420000901150027FFFF000075109502B102C0C9
:1034300005010902A10185010901A1000509190180
:103440002903150025019503750181029501750574
:1034500081010501093009311581257F7508950223
:103460008106C0C005010906A1018502050719E012
:1034700029E7150025017501950881029506750853
:103480002565190029658100C0243346334A337409
:013490003308
:0E349200D9CFE6FFE1CFD9FF07EC08F0FD0E21
:1034A000DBCFE6FFFE0EDBCFE6FF5AEC1CF0E55269
:1034B000E552E552E7CFD9FF1200D9CFE6FFE1CFC1
:1034C000D9FF020EE126FD0EDBCFE6FFFE0EDBCFBD
:1034D000E6FFDFDFE552E552E76E010EE7CFDBFFE7
:1034E000E76EFD0EDBCF14F0FE0EDBCF15F0E750DC
:1034F0001426000E152214C0E6FF15C0E6FFC9DF32
:10350000E552E552DF6EDECF14F0DDCF15F014C0CA
:10351000F3FF15C0F4FF020EE15C02E2E16AE5523E
:10352000E16EE552E7CFD9FF1200D9CFE6FFE1CF38
:10353000D9FF07EC08F0FC0EDBCFE6FFFD0EDBCF7A
:10354000E6FFFE0EDBCFE6FFD8EC1BF0E552E552BE
:10355000E552E552E7CFD9FF1200D9CFE6FFE1CF20
:10356000D9FF020EE126FB0EDBCFDEFFDBCFDDFF56
:10357000010EDBCFE6FFFD0EDBCFE6FFFE0EDBCF5D
:10358000E6FFD3DFE552E552E552DFCFE6FF010E5D
:10359000E76EFD0EDBCF14F0FE0EDBCF15F0E7502B
:1035A0001426000E152214C0E6FF15C0E6FFBDDF8D
:1035B000E552E552E552020EE15C02E2E16AE552B3
:0A35C000E16EE552E7CFD9FF1200DB
:0635CA00020120511F0B5D
:1035D000010801E01200245101E01200060E215DF5
:1035E00021E12351230A1BE0010A0CE0030A1AE13E
:1035F0000001D70517E10001360EE76F330EE86FC3
:10360000090E09D00001D7050DE10001980EE76F02
:10361000330EE86FF10EEA6FEB6BC00E02D00001C3
:10362000800EE96F02012051600BE842E842E84257
:10363000E842E842010801E0120021510B0A2AE0A9
:10364000080A1DE0090A15E0080A09E00B0A05E06E
:10365000080A01E012009DEF16F01FEF16F00001BE
:10366000FC0EE76F000EE86F010EEA6FEB6BC10E08
:103670000FD00001800EE96F23C2FCF012000001A0
:10368000FD0EE76F000EE86F010EEA6FEB6B810E27
:10369000E96F12000001800EE96F22C2FDF01200F6
:1036A000060EF66E100EF76E000EF86E01010900A0
:1036B000F550456F0900F550466F03E1456701D0AD
:1036C0003DD00900F550406F0900F550416F0900E9
:1036D000F550426F09000900F550E96E0900F550F8
:1036E000EA6E090009000900F550436F0900F55022
:1036F000446F09000900F6CF47F1F7CF48F1F8CF42
:1037000049F140C1F6FF41C1F7FF42C1F8FF010195
:10371000435302E1445307E00900F550EE6E4307BE
:10372000F8E24407F9D747C1F6FF48C1F7FF49C19E
:0E373000F8FF01014507000E465BBFD71200EF
:02373E00D9CFE1
:10374000E6FFDACFE6FFE1CFD9FFE2CFDAFFFD0EE9
:10375000DB50C96EC6AE02D0FF0E24D00F0EC614C9
:1037600008080FE00F0EC6140B080BE0C6889EA6D3
:10377000FED7C750040B03E1C750010B10E0000E49
:1037800011D00F0EC614080804E00F0EC6140B0863
:1037900009E1C7B0FED7E9EC1CF0C5AC02D0FE0EC3
:1037A00001D0000EE552E5CFDAFFE7CFD9FF1200D6
:1037B000D9CFE6FFDACFE6FFE1CFD9FFE2CFDAFFDC
:1037C000FF0EE76EFC0EDBCF14F0E750141614501A
:1037D000A96EFB0EDB50A86EA69EA69CA684F29E48
:1037E000550EA76EAA0EA76EA682F28EA694E5527B
:0A37F000E5CFDAFFE7CFD9FF1200A2
:0637FA0082BA0DD0780E2A
:10380000E66ECEEC1CF0E55282BA06D001014C0502
:1038100002E14C6B4E2B010C0101010E4C6F000CB0
:1038200082B20CD0780EE66ECEEC1CF0E55282B27D
:1038300005D001014D0501E14D6B010C0101010EA7
:043840004D6F000CBC
:0C384400D9CFE6FFDACFE6FFE1CFD9FFD5
:10385000E2CFDAFFE652E652FC0EDBCFDEFFDBCF33
:10386000DDFF010EDB50D76EDF50D66EE552E5521C
:0C387000E552E5CFDAFFE7CFD9FF1200E8
:04387C00D9CFE6FFBB
:10388000DACFE6FFE1CFD9FFE2CFDAFFFD0EDB5062
:103890007F0BD56ED76AD66AF294FD0EDBAE02D0EE
:1038A000F28A01D0F29AD58EE552E5CFDAFFE7CF62
:0438B000D9FF12002A
:0C38B400D9CFE6FFDACFE6FFE1CFD9FF65
:1038C000E2CFDAFFFF0EE76EFC0EDBCF14F0E7501D
:1038D00014161450A96EA69CA69EA680A850E55268
:0A38E000E5CFDAFFE7CFD9FF1200B1
:0638EA00D9CFE6FFDACFA2
:1038F000E6FFE1CFD9FFE2CFDAFF3F0EC716C66A77
:10390000C56AFD0EDB50C612FC0EDB50C712938C4D
:103910009388C68AE552E5CFDAFFE7CFD9FF1200D8
:10392000FE0EE3CFE9FFFF0EE3CFEAFFE9CFF3FF9F
:10393000EACFF4FFFB0EE35003E1FC0EE35009E095
:10394000FB0EE30602E2FC0EE306FD0EE350EE6E14
:04395000F1D7120099
:0C395400056A046A100EE76ED890083671
:103960000936043605360D50045C0E50055805E343
:103970000D50045E0E50055A082AE72EF0D71200AB
:1039800011EE00F021EE00F0F86A019C50EC1BF003
:0C3990000AEC08F0B1EC10F0FBD71200BC
:04399C00FF0EE350E7
:1039A000186E1B0E00D001D0200EE76EE72EFED75A
:0839B000182EFAD700D0120016
:0839B8000F0EC614080804E01C
:1039C0000F0EC6140B0801E1C586C7A0FED7C9506B
:0239D0001200E3
:0E39D2001F0EC514FDE1C750040BFAE11200F0
:0E39E00000EE00F00F0EEE6AEA62FDD7120054
:020000040030CA
:0100000000FF
:0100010032CC
:0100020001FC
:010003001EDE
:0100050000FA
:0100060001F8
:0100080003F4
:01000900C036
:01000A0003F2
:01000B00E014
:01000C0003F0
:01000D0040B2
:00000001FF
