:020000040000FA
:06000000DDEF14F0120018
:0600080004EF08F01200F5
:060018000CEF08F01200DD
:06100000DDEF14F0120008
:021006000000E8
:0610080039EF10F01200A8
:02100E001200CE
:0610180084EF10F012004D
:02101E00D9CF28
:10102000E6FFE1CFD9FFE6520F015F6B626A160E51
:10103000616E9F0E5B6F7B0E606E648C5C6B000E4E
:10104000E66EE66AE66A540EE66E0F0EE66EB0ECE9
:1010500014F00B6E050EE15E0B50649CDF6ADF50EE
:101060000B6E0C6A080E0B5C000E0C5810E2DF5081
:10107000040DF3CFE9FFF4CFEAFF000EE926020EDC
:10108000EA22EE6AEE6AEE6AEE6ADF2AE8D70F011C
:10109000160E536F62A60CD0030EE66E620EE66E5D
:1010A0000F0EE66E05EC10F0E552E552E552F2D770
:1010B0000001736B786B796B7A6B6498080E6B6FB9
:1010C000020E6C6F616B606BE552E552E7CFD9FFA2
:1010D0001200D9CFE6FFE1CFD9FFE652000160054B
:1010E00007E164BA05D0626A60806088020E606FB2
:1010F0006250040B0FE06050040B0CE0020EE66E31
:10110000620EE66E0F0EE66E05EC10F0E552E5524B
:10111000E552E8D864B271D06250010B1BE0605018
:10112000010B18E07CDF0001040E606F0201200E4D
:10113000026F020E036F080E016F006B8C0E00131E
:10114000E66A620EE66E0F0EE66E05EC10F0E552F2
:10115000E552E5526250100B0FE06050100B0CE0AE
:10116000A5D8040EE66E620EE66E0F0EE66E05EC76
:1011700010F0E552E552E5526250400B1DE0605020
:10118000400B1AE0010EE66EE66A000EE66EE66AB5
:10119000020EE66EE66AC1EC11F00B6E060EE15E21
:1011A0000B50060EE66E620EE66E0F0EE66E05EC56
:1011B00010F0E552E552E5526250200B04E0605019
:1011C000200B01E04FD86250020B13E06050020B7D
:1011D00010E0010EE66EE66A000EE66EE66AE6686C
:1011E000E668C1EC11F00B6E060EE15E0B500F01CC
:1011F0005F6B040E0001605D02E2A1942ED060A638
:101200002BD0DF6A040EDF5C27E262A625D063CF15
:1012100080F0030EE66E620EE66E0F0EE66E05ECD3
:1012200010F0E552E552E552780E0001801502E11A
:1012300078D810D0000EE66EE66A800EE66E000EDC
:10124000E66E010EE66EE66AC1EC11F00B6E060E5C
:10125000E15E0B50DF2AD6D7A194E552E552E7CFE5
:10126000D9FF12000F0153A115D063C0E9FF64C07C
:10127000EAFFEF5080080DE16BC0E9FF6CC0EAFFA8
:10128000EF50840806E163C0E9FF64C0EAFF8C0EFA
:10129000EF6E5391050EE66E620EE66E0F0EE66E71
:1012A00005EC10F0E552E552E55212006084040EA0
:1012B000E66E620EE66E0F0EE66E05EC10F0E5527D
:1012C000E552E5526482000EE66EE66AE66EE66A74
:1012D000040EE66EE66AC1EC11F00B6E060EE15EDE
:1012E0000B501200000EE66EE66AE66EE66A030E2A
:1012F000E66EE66AC1EC11F00B6E060EE15E0B5075
:101300006492609462A40CD0020EE66E620EE66EE9
:101310000F0EE66E05EC10F0E552E552E552F2D7FD
:101320001200D9CFE6FFE1CFD9FFE652FD0E000152
:1013300080155AE17E0E8015E8407F0B040DF3CF37
:1013400063F0F4CF64F0000E6327020E642363C0E1
:1013500065F064C066F0657563C0E9FF64C0EAFFCC
:10136000EF503C0BE842E8420D083CE163C0E9FF66
:1013700064C0EAFF020EE926000EEA22EECF0BF06F
:10138000EFCF0CF0280E0B182BE1020E0C1828E101
:1013900063C0E9FF64C0EAFF020EE926000EEA22FC
:1013A000200EEE6E020EED6EDF6ADF500B6E0C6AE1
:1013B000080E0B5C000E0C5813E2DF50EA6A280F8F
:1013C000E96E020EEA22EF50E66EDF50EA6A200F65
:1013D000E96E020EEA22E552E750EF6EDF2AE5D70A
:1013E0000DD807D02ED805D0FD0E8015040801E1D8
:1013F0004ED8E552E552E7CFD9FF12006BC0E9FFA6
:101400006CC0EAFFEF50800B05E06BC0E9FF6CC0D9
:10141000EAFFEF6A00016F6B706B746B756B736B37
:10142000B5D8000EE66EE66AE66EE66A170EE66E60
:10143000E66AC1EC11F00B6E060EE15E0B505CEF3C
:101440000CF0020E0001705D02E1B7EF0DF06CD8F8
:10145000000181511AE165C0E9FF66C0EAFFEE5262
:10146000080EEF6E65C0E9FF66C0EAFF020EE926CE
:10147000000EEA22200EEE6E020EED6E65C0E9FF50
:1014800066C0EAFF8C0EEF6E1200816B1200D9CF9E
:10149000E6FFE1CFD9FFE6526BC0E9FF6CC0EAFF7F
:1014A000EF50400B01E0010EDF6E00016B75080E7E
:1014B000605D0CE122C25CFF0F015C51000803E299
:1014C0000001100E02D00001040E606F700526E1CD
:1014D0006BC0E9FF6CC0EAFF020EE926000EEA22AB
:1014E000280EEE6E020EED6EB9DA020E00016F5D8F
:1014F00006E16BC0E9FF6CC0EAFF840E0DD0DF503F
:1015000006E16BC0E9FF6CC0EAFFC80E05D06BC0F6
:10151000E9FF6CC0EAFF880EEF6E01D005D8E552F6
:10152000E552E7CFD9FF1200D9CFE6FFE1CFD9FFCF
:10153000020EE1260001706B6BC0E9FF6CC0EAFF90
:10154000EF6A040E6B190B6E6CC00CF0DE6E6CC093
:10155000DDFFDECFE9FFDDCFEAFFEF6A78AF0CD029
:101560007B517C1107E005D07CC0FAFF00017B5164
:10157000F96EFADF0001789F020EE15C02E2E16A97
:10158000E552E16EE552E7CFD9FF1200020120518A
:10159000600BE842E842E842E842E842000901E024
:1015A000120021510C0A50E00B0A3FE00C0A31E016
:1015B000010A22E00B0A1EE0020A1CE0030A18E0FE
:1015C000080A10E0010A0CE00F0A08E0030A01E033
:1015D00012000001738F080E606F1200ABEF0BF06A
:1015E00054EF0EF00001610E716F000E726F0CD09F
:1015F00002EF0CF025EF0BF024510001716F726BBC
:10160000620E7127000E72237381010E746F738F47
:1016100012000001738F02012451EA6A620FE96E21
:10162000000EEA2222C2EFFF1200000EE66EE66A0A
:10163000E66EE66A160EE66EE66AC1EC11F00B6E17
:10164000060EE15E0B5012001200D9CFE6FFE1CF8B
:10165000D9FF040EE1260201220510E120511F0BE3
:1016600000090CE10001738F030E0201215D04E10A
:101670000001010E7F6F02D000017F6B0201225139
:1016800060E120511F0B02085CE124510F0B00099F
:1016900058E00001738F020124BF0BD024510F0BBF
:1016A000E96EEA6AD890E936EA36670EE926000E56
:1016B0000AD024510F0BE96EEA6AD890E936EA366F
:1016C0006B0EE926000EEA22EECFDEFFEDCFDDFF46
:1016D000030E215D06E1DECFE9FFDDCFEAFF840ED8
:1016E0002FD024510F0B0C6A530F0B6E0F0E0C22D0
:1016F000020E0BC0DBFF030E0CC0DBFF020EDBCFC4
:10170000E9FF030EDBCFEAFFEE90ED5224AF0CD0E1
:10171000DECFE9FFDDCFEAFFEF6ADF74DECFE9FF5E
:10172000DDCFEAFF400E0CD0DECFE9FFDDCFEAFFD0
:10173000880EEF6EDF74DECFE9FFDDCFEAFFC80E63
:10174000EF6E040EE15C02E2E16AE552E16EE55201
:10175000E7CFD9FF1200800E0201205D52E10001A7
:10176000C00E736F02012351030A29E0010A09E048
:10177000030A45E10001080E716F260E726F120E0A
:1017800038D02251F66EF76AD890F636F736D30E77
:10179000F626260EF7220900F5CF71F00A00F5CFE4
:1017A00072F0020E0001F76A7125F66E7251F7228F
:1017B0000900F5CF74F00A00F5CF75F01200030EA2
:1017C000225D1AE22251F66EF76AD890F636F736A5
:1017D000D50EF626260EF7220900F5CF71F00A0085
:1017E000F5CF72F071C0F6FF72C0F7FF0800F55038
:1017F0000001746F756B12000001736B1200000121
:10180000736B1200D9CFE6FFE1CFD9FF020EE126BC
:101810000201286B296B20511F0B020A11E0030AF9
:101820000CE0010A35E10001738F020128810001FB
:101830007F052EE1020128832BD00001738F28D071
:101840000001738F020124BF0BD024510F0BE96EEE
:10185000EA6AD890E936EA36670EE926000E0AD021
:1018600024510F0BE96EEA6AD890E936EA366B0E1E
:10187000E926000EEA22EECFDEFFEDCFDDFFDECF60
:10188000E9FFDDCFEAFFEF50040B02E0010E286F05
:10189000000173AF07D0280E716F020E726F738153
:1018A000020E746F020EE15C02E2E16AE552E16E43
:1018B000E552E7CFD9FF12006498000173BF47D00B
:1018C00078AF26D0020E706F6BC0E9FF6CC0EAFFE4
:1018D000EE52EF6A6BC0E9FF6CC0EAFFC80EEF6E14
:1018E00065C0E9FF66C0EAFFEE52080EEF6E65C004
:1018F000E9FF66C0EAFF020EE926000EEA22280E82
:10190000EE6E020EED6E65C0E9FF66C0EAFF7AD0AA
:1019100065C0E9FF66C0EAFFEE52080EEF6E65C0D3
:10192000E9FF66C0EAFF020EE926000EEA22200E59
:10193000EE6E020EED6E65C0E9FF66C0EAFF8C0E2A
:10194000EF6E6BC0E9FF6CC0EAFF840E5CD078BF1D
:1019500084D0020120AF59D0000174510201265DEC
:10196000000175510201275904E226C274F027C212
:1019700075F074D80001010E706F65C0E9FF66C094
:10198000EAFFEE52080EEF6E65C0E9FF66C0EAFF9F
:10199000020EE926000EEA22200EEE6E020EED6E19
:1019A00065C0E9FF66C0EAFF800EEF6E816B63C021
:1019B000E9FF64C0EAFFEE52080EEF6E63C0E9FF74
:1019C00064C0EAFF020EE926000EEA22200EEE6E47
:1019D000020EED6E63C0E9FF64C0EAFF840EEF6E95
:1019E000010E816F6BC0E9FF6CC0EAFF020EE926B1
:1019F000000EEA22280EEE6E020EED6E6BC0E9FFBD
:101A00006CC0EAFFC80EEF6E12000001020E706F8C
:101A10006BC0E9FF6CC0EAFFEE52EF6A6BC0E9FFF2
:101A20006CC0EAFFC80EEF6E65C0E9FF66C0EAFF52
:101A3000EE52080EEF6E65C0E9FF66C0EAFF020EC7
:101A4000E926000EEA22280EEE6E020EED6E65C04B
:101A5000E9FF66C0EAFFC80EEF6E1200D9CFE6FFBD
:101A6000E1CFD9FF020EE1260001080E745D000EE1
:101A700075590DE274C0DEFF75C0DDFF6F5102E1E4
:101A8000010E03D06F0506E1020E6F6F03D0080E42
:101A9000DE6EDD6A6BC0E9FF6CC0EAFFEF926BC0DF
:101AA000E9FF6CC0EAFFEF906BC0E9FF6CC0EAFF92
:101AB000010EDB50EF126BC0E9FF6CC0EAFFEE5283
:101AC000DFCFEFFF000EDB50745F010EDB50755B64
:101AD000280E7D6F020E7E6F73B120D0D9CFE9FF43
:101AE000DACFEAFFEE50ED1038E071C0F6FF72C0B9
:101AF000F7FF712B000E72230800F550E66E7DC0D3
:101B0000E9FF7EC0EAFF7D2B000E7E23E552E75001
:101B1000EF6EDF06010EE2E2DB06E0D7D9CFE9FF88
:101B2000DACFEAFFEE50ED1018E071C0E9FF72C0A5
:101B3000EAFF712B000E7223EF50E66E7DC0E9FFC5
:101B40007EC0EAFF7D2B000E7E23E552E750EF6E4C
:101B5000DF06010EE3E2DB06E1D7020EE15C02E202
:101B6000E16AE552E16EE552E7CFD9FF1200D9CF25
:101B7000E6FFE1CFD9FF020EE12663C0E9FF64C0B2
:101B8000EAFFEE52EFCFDFFFDFCF0BF00B5000018B
:101B9000795D000E7A5903E279C0DFFF09D0DF508A
:101BA0000B6E0C6AE850795D796F0C507A597A6F38
:101BB000010EDB6ADF50F36E010EDBCFF4FFF35052
:101BC000F45C16E2010EDB50EA6A280FE96E020EA1
:101BD000EA22EF50E66E76C0E9FF77C0EAFF762B87
:101BE000000E7723E552E750EF6E010EDB2AE2D7B5
:101BF000000ED8807955000E7A5527E265C0E9FFBE
:101C000066C0EAFFEE52080EEF6E65C0E9FF66C0DF
:101C1000EAFF020EE926000EEA22280EEE6E020E00
:101C2000ED6E63C0E9FF64C0EAFFEF50400B06E1D0
:101C300065C0E9FF66C0EAFFC80E05D065C0E9FFD0
:101C400066C0EAFF880EEF6E25D065C0E9FF66C06A
:101C5000EAFFEE52080EEF6E65C0E9FF66C0EAFFCC
:101C6000020EE926000EEA22200EEE6E020EED6E46
:101C700065C0E9FF66C0EAFF840EEF6E7B517C1100
:101C800007E005D07CC0FAFF00017B51F96EFADF56
:101C90000001789F020EE15C02E2E16AE552E16E2A
:101CA000E552E7CFD9FF12000001738F000EE66EF8
:101CB000E66AE66A540EE66E0F0EE66EB0EC14F0BD
:101CC0000B6E050EE15E0B50010EE66EE66AE66AEB
:101CD000620EE66E000EE66EB0EC14F00B6E050EB2
:101CE000E15E0B5022C261F00201225104E10001C9
:101CF000100E606F12000001200E606F000EE66E85
:101D0000E66AE66EE66A150EE66EE66AC1EC11F06A
:101D10000B6E060EE15E0B501200D9CFE6FFE1CF4D
:101D2000D9FF020EE126000EDE6E020EDD6EFD0E04
:101D3000DB50E8240D6EFE0EDB50040DF3500D2435
:101D4000040DF3500B6E0C6A020E0F0B05E0D890D9
:101D50000C320B32E806FBE1D8900B360C36D890EB
:101D60000B360C36D9CFE9FFDACFEAFF0B50EE265F
:101D70000C50ED22DECFE9FFDDCFEAFFEF9EFD0E36
:101D8000DB500AE1FE0EEA6ADB34FE0BEA36E96E4E
:101D9000670EE926000E09D0FE0EEA6ADB34FE0B60
:101DA000EA36E96E6B0EE926000EEA22DECFEEFF80
:101DB000DDCFEDFFDECFE9FFDDCFEAFFEF9CDECF29
:101DC000E9FFDDCFEAFF040EE926000EEA22EF8CE0
:101DD000020EE15C02E2E16AE552E16EE552E7CF14
:101DE000D9FF1200D9CFE6FFE1CFD9FF020EE126DD
:101DF000FE0EDB500C6A530F0B6E0F0E0C220BC045
:101E0000DEFF0CC0DDFFDECFE9FFDDCFEAFFFD0E18
:101E1000DBCFEFFFDBA407D0E66AFE0EDBCFE6FFE9
:101E20007CDFE552E552FD0EDBA208D0010EE66E26
:101E3000FE0EDBCFE6FF71DFE552E552020EE15CFC
:101E400002E2E16AE552E16EE552E7CFD9FF120006
:101E5000D9CFE6FFE1CFD9FF020EE126FE0EDB501F
:101E600020E165C0E9FF66C0EAFFEE52080EEF6EA2
:101E700065C0E9FF66C0EAFF020EE926000EEA220D
:101E8000200EEE6E020EED6E65C0E9FF66C0EAFF41
:101E90008C0EEF6E6BC0E9FF6CC0EAFF840EEF6E34
:101EA0003BD0FD0EDB50E8240D6EFE0EDB50040D22
:101EB000F3500D24040DF3CF0BF0F4CF0CF0000E13
:101EC0000B26020E0C220BC0DEFF0CC0DDFF840EC1
:101ED000DECFE9FFDDCFEAFFE850EF12FD0EDB5069
:101EE000E8240D6EFE0EDB50040DF3500D24010F9F
:101EF000040DF3CF0BF0F4CF0CF0000E0B26020E06
:101F00000C220BC0DEFF0CC0DDFF840EDECFE9FF2C
:101F1000DDCFEAFFE850EF12020EE15C02E2E16A77
:101F2000E552E16EE552E7CFD9FF1200D9CFE6FFC7
:101F3000E1CFD9FF020EE126FD0EDB500AE0FE0ED6
:101F4000EA6ADB34FE0BEA36E96E6B0EE926000E18
:101F500009D0FE0EEA6ADB34FE0BEA36E96E670E44
:101F6000E926000EEA22EECFDEFFEDCFDDFFDECF69
:101F7000E9FFDDCFEAFF020EE926000EEA22FB0EA2
:101F8000DBCFEEFFFC0EDBCFEDFFDECFE9FFDDCFD9
:101F9000EAFFEE52FA0EDBCFEFFF400EDECFE9FF95
:101FA000DDCFEAFFE850EF16880EDECFE9FFDDCF88
:101FB000EAFFE850EF12FD0EDB500AE0FE0EEA6A7F
:101FC000DB34FE0BEA36E96E6B0EE926000E09D013
:101FD000FE0EEA6ADB34FE0BEA36E96E670EE9268E
:101FE000000EEA22EF74DECF0BF0DDCF0CF00BC059
:101FF000F3FF0CC0F4FF020EE15C02E2E16AE5527D
:10200000E16EE552E7CFD9FF1200D9CFE6FFE1CF6D
:10201000D9FF010EF36EFC0EDB5004E0D890F336CE
:10202000E806FCE1F31C0B6EFD0EDBCFE9FFFE0EB4
:10203000DBCFEAFF0B50EF16E552E7CFD9FF1200D6
:1020400012000001605114E1646A606A160E616E4C
:102050000F019F0E5B6F7B0E606ED08EA284A084FA
:10206000F28E64B602D06486FCD70001010E606F68
:0220700012005C
:0E207200DACFE4FFE2CFDAFFE9CFE4FFEACFF6
:10208000E4FFF6CFE4FFF7CFE4FFF5CFE4FFF3CFB3
:10209000E4FFF4CFE4FFFACFE4FF00EE00F00B0E14
:1020A000E80403E3EECFE4FFFBD700EE0BF0030EF2
:1020B000E80403E3EECFE4FFFBD7E65269EC08F057
:1020C000E55200EE0DF0030EE80403E3E5CFEDFF6B
:1020D000FBD700EE0AF00B0EE80403E3E5CFEDFFBB
:1020E000FBD7E5CFFAFFE5CFF4FFE5CFF3FFE5CF70
:1020F000F5FFE5CFF7FFE5CFF6FFE5CFEAFFE5CF48
:10210000E9FFE5CFDAFF1100D8CFE4FFE0CFE4FF2D
:10211000E46EDACFE4FFE2CFDAFFE9CFE4FFEACF03
:10212000E4FFF6CFE4FFF7CFE4FFF5CFE4FFF3CF12
:10213000E4FFF4CFE4FFFACFE4FF00EE00F00B0E73
:10214000E80403E3EECFE4FFFBD700EE0BF0030E51
:10215000E80403E3EECFE4FFFBD7E652F2A413D08A
:10216000F294AA0EE66E880EE66E5DEC14F0E5526F
:10217000E552030E0001A35D04E38B700001010E24
:10218000866F0001A36BE55200EE0DF0030EE8042C
:1021900003E3E5CFEDFFFBD700EE0AF00B0EE804FA
:1021A00003E3E5CFEDFFFBD7E5CFFAFFE5CFF4FF83
:1021B000E5CFF3FFE5CFF5FFE5CFF7FFE5CFF6FF7E
:1021C000E5CFEAFFE5CFE9FFE5CFDAFFE550E5CF60
:1021D000E0FFE5CFD8FF1000D08EF28EF28C970E84
:1021E000E66E79EC14F0E552F28AF194120004D80C
:1021F00021EC10F037D8FED70F0EC11202D80FEF26
:1022000008F094908B80948A0001A26B0001866B89
:10221000876B0001A36BE0DFAA0EE66E880EE66E08
:102220005DEC14F0E552E55200018A6B8B6B896B13
:1022300089C088F00CEC12F017EC12F0700EE66E0C
:10224000EBEC14F0E552920EE66E000EE66E900E88
:10225000E66E000EE66E6DEC12F0E552E552E552C8
:10226000E5521200200E0001605D05E36450020B90
:1022700001E0120001D8120000018A518B1102E125
:10228000000E08D08AC0E9FF8BC0EAFFEF50800B38
:1022900001E0010E000956E1CAEC14F0000907E064
:1022A0000001865102E1878104D0879102D00001AC
:1022B000876B865103E08783866B01D0879387C045
:1022C00033F28E0EE66E000EE66E8C0EE66E000E9B
:1022D000E66E6DEC12F0E552E552E552E552000172
:1022E0008C51905D8D51915903E2010E886F01D0A0
:1022F00088698E51925D8F51935903E2010E896F67
:1023000001D0896988C034F289C035F20201F00E2B
:10231000366F0F0E376FE00E386F0E0E396F070EE7
:10232000E66E330EE66E020EE66E010EE66EE66EA9
:1023300096EC0FF00B6E050EE15E0B50F3CF8AF0BA
:10234000F4CF8BF0120012001200120012006EEF98
:1023500013F012001A0EE66E010EE66EF2EC0EF0AD
:10236000E552E552120064840001080E946F070ED6
:10237000956F9407000E955B94519511FAE1649462
:102380001200D9CFE6FFE1CFD9FFFD0EDBCF06F07B
:10239000FE0EDBCF07F0010E061801E1075033E017
:1023A000E868061802E1E86807182BE0030E061833
:1023B00001E1075024E0040E061801E107501DE07A
:1023C000020E061801E1075016E0170E061801E18B
:1023D00007500FE0160E061801E1075008E0150E31
:1023E000061801E1075001E010D0B4DF0FD0B1DFD3
:1023F0000DD0ADDF0BD0A9DF09D0A5DF07D0A4DF5A
:1024000005D0A4DF03D0000001D000D0010E00D021
:08241000E552E7CFD9FF1200ED
:08241800E66A080EE66E95EC81
:1024200014F0E552E5521D0EC86E06EF15F0C5809A
:10243000C5B0FED706EC15F0200EE66E24EC14F0C5
:10244000E552000901E0010C06EC15F0E66A24EC07
:1024500014F0E552000901E0020C06EC15F0E66A02
:1024600024EC14F0E552000901E0030C06EC15F031
:10247000C584C5B4FED7700EE66EEBEC14F0E552E1
:10248000000CC580C5B0FED706EC15F0200EE66E38
:1024900024EC14F0E552000901E0010C06EC15F003
:1024A000010EE66E24EC14F0E552000901E0020C86
:1024B00006EC15F0010EE66E24EC14F0E55200096E
:1024C00001E0030C06EC15F0C584C5B4FED7700E10
:1024D000E66EEBEC14F0E552000CD9CFE6FFE1CF4D
:1024E000D9FFE652C580C5B0FED706EC15F0200E28
:1024F000E66E24EC14F0E552000902E0010E7FD0F4
:1025000006EC15F0010EE66E24EC14F0E55200091D
:1025100002E0020E74D006EC15F0C582C5B2FED7FB
:10252000210EE66E24EC14F0E552000902E0030EE1
:1025300066D006EC15F0F9EC14F0DF6E06EC15F041
:10254000C59AC588C5B8FED7DF50F350E66EFD0EBC
:10255000DBCFE9FFFE0EDBCFEAFFE552E750EE6E80
:10256000ED6A06EC15F0F9EC14F0DF6E06EC15F0F0
:10257000C59AC588C5B8FED7DF500B6E0C6AFD0E34
:10258000DBCFE9FFFE0EDBCFEAFF0B50EE120C5063
:10259000ED1206EC15F0F9EC14F0DF6E06EC15F018
:1025A000C59AC588C5B8FED7DF50F350E66EFB0E5E
:1025B000DBCFE9FFFC0EDBCFEAFFE552E750EE6E22
:1025C000ED6A06EC15F0F9EC14F0DF6E06EC15F090
:1025D000C58AC588C5B8FED7DF500B6E0C6AFB0EE6
:1025E000DBCFE9FFFC0EDBCFEAFF0B50EE120C5005
:1025F000ED1206EC15F0C584C5B4FED7000EE55209
:08260000E552E7CFD9FF1200FB
:082608001201000200000008AD
:10261000D804120001000102000109022200010198
:1026200000C0320904000001030102000921110168
:102630000001223D00070581030300010403090492
:10264000320350006400530020002D00200047009A
:1026500072006F007500700020003100380020000B
:102660002D00200032003000300039002F003100F2
:10267000300024034D006F007500730065002000DA
:10268000620079002000470072006F007500700042
:102690002000310038000600FF0901A1010901A155
:1026A000000509190129031500250195037501810C
:1026B0000295017505810105010930093115812552
:1026C0007F7508950281060901090175109502813F
:0B26D00006C0C01A263C2640267226D9
:0426DC000201205186
:1026E0001F0B010801E01200245101E01200060E48
:1026F000215D21E12351230A1BE0010A0CE0030ABA
:102700001AE10001610517E100012C0E716F260E20
:10271000726F090E09D0000161050DE10001960EEE
:10272000716F260E726F3D0E746F756BC00E02D006
:102730000001800E736F02012051600BE842E842F5
:10274000E842E842E842010801E0120021510B0A88
:1027500026E0080A19E0090A11E0080A05E00B0A58
:1027600023E0080A21E012000001A00E716F000EA4
:10277000726F010E746F756BC10E0FD00001800E69
:10278000736F23C2A0F012000001A10E716F000E42
:10279000726F010E746F756B810E736F1200000102
:0A27A000800E736F22C2A1F0120038
:0627AA00060EF66E100E93
:1027B000F76E000EF86E00010900F5509B6F0900DE
:1027C000F5509C6F03E19B6701D03DD00900F550A7
:1027D000966F0900F550976F0900F550986F090042
:1027E0000900F550E96E0900F550EA6E090009008C
:1027F0000900F550996F0900F5509A6F090009001A
:10280000F6CF9DF0F7CF9EF0F8CF9FF096C0F6FF81
:1028100097C0F7FF98C0F8FF0001995302E19A535F
:1028200007E00900F550EE6E9907F8E29A07F9D72C
:102830009DC0F6FF9EC0F7FF9FC0F8FF00019B07F9
:08284000000E9C5BBFD71200E3
:08284800D9CFE6FFDACFE6FF6D
:10285000E1CFD9FFE2CFDAFFFD0EDB50C96EC6AE85
:1028600002D0FF0E24D00F0EC61408080FE00F0E82
:10287000C6140B080BE0C6889EA6FED7C750040BF3
:1028800003E1C750010B10E0000E11D00F0EC6146B
:10289000080804E00F0EC6140B0809E1C7B0FED704
:1028A00006EC15F0C5AC02D0FE0E01D0000EE552CC
:0A28B000E5CFDAFFE7CFD9FF1200F1
:0628BA00D9CFE6FFDACFE2
:1028C000E6FFE1CFD9FFE2CFDAFFE652E652FC0E97
:1028D000DBCFDEFFDBCFDDFF010EDB50D76EDF503D
:1028E000D66EE552E552E552E5CFDAFFE7CFD9FFE4
:0228F0001200D4
:0E28F200D9CFE6FFDACFE6FFE1CFD9FFE2CF84
:10290000DAFFFD0EDB507F0BD56ED76AD66AF294E4
:10291000FD0EDBAE02D0F28A01D0F29AD58EE552DE
:0A292000E5CFDAFFE7CFD9FF120080
:06292A00D9CFE6FFDACF71
:10293000E6FFE1CFD9FFE2CFDAFF3F0EC716C66A46
:10294000C56AFD0EDB50C612FC0EDB50C712938C1D
:102950009388C68AE552E5CFDAFFE7CFD9FF1200A8
:10296000FE0EE3CFE9FFFF0EE3CFEAFFE9CFF3FF6F
:10297000EACFF4FFFB0EE35003E1FC0EE35009E065
:10298000FB0EE30602E2FC0EE306FD0EE350EE6EE4
:04299000F1D7120069
:0C29940082BA0DD0780EE66EEBEC14F069
:1029A000E55282BA06D00001A20502E1A26BA32B78
:0A29B000010C0001010EA26F000CE3
:0629BA0011EE00F021EE19
:1029C00000F0F86A0A9CD5EC13F007EC08F0F7EC7D
:0629D00010F0FBD712001D
:0A29D600FF0EE3500E6E1B0E00D042
:1029E00001D0200EE76EE72EFED70E2EFAD700D0CC
:0229F0001200D3
:0E29F2000F0EC614080804E00F0EC6140B08E2
:0C2A000001E1C586C7A0FED7C950120036
:042A0C001F0EC514C0
:0A2A1000FDE1C750040BFAE11200CB
:062A1A0000EE00F00F0EBB
:082A2000EE6AEA62FDD7120024
:020000040030CA
:0100000000FF
:0100010032CC
:0100020001FC
:010003001EDE
:0100050000FA
:0100060001F8
:0100080003F4
:01000900C036
:01000A0003F2
:01000B00E014
:01000C0003F0
:01000D0040B2
:00000001FF
